:020000040800F2
:10000000D8490020990100088B0E0008C10D000896
:10001000890E00085D0200087F1000080000000043
:1000200000000000000000000000000001010008C6
:100030005F02000800000000450100088D0E000866
:10004000B3010008B3010008B3010008B3010008C0
:10005000B3010008B3010008B3010008B3010008B0
:10006000B3010008B3010008B3010008B3010008A0
:10007000B3010008B3010008B3010008B301000890
:10008000B3010008B3010008B3010008B301000880
:10009000B3010008B3010008B3010008B301000870
:1000A000B3010008B3010008B3010008B301000860
:1000B000B3010008B3010008B3010008B301000850
:1000C000B3010008B3010008B3010008B301000840
:1000D000B3010008B3010008B3010008B301000830
:1000E000B3010008B3010008B3010008DFF80CD029
:1000F00000F076F80048004709110008D8490020B0
:10010000224B19680868B0E8F00F80F30988BFF344
:100110006F8F4FF0000080F311884EF00D0E704786
:100120000000000006480068006880F3088862B696
:1001300061B6BFF34F8FBFF36F8F00DF00BF00BF0B
:1001400008ED00E0EFF30980BFF36F8F0F4B1A68E3
:1001500020E9F00F106008B54FF0BF0080F3118860
:10016000BFF34F8FBFF36F8F01F08EFA4FF0000097
:1001700080F31188BDE8084019680868B0E8F00FFE
:1001800080F30988BFF36F8F704700BF1400002011
:10019000EFF3058070470000064880470648004797
:1001A000FEE7FEE7FEE7FEE7FEE7FEE7FEE7FEE727
:1001B000FEE7FEE7030F0008ED000008D2B201E001
:1001C00000F8012B491EFBD270470022F6E710B55C
:1001D00013460A4604461946FFF7F0FF204610BDB5
:1001E000064C074D06E0E06840F0010394E8070084
:1001F00098471034AC42F6D3FFF77CFF081A00088A
:10020000281A00081CB500210520CDE900010B4685
:100210004FF4007203A1074801F086FABDE81C40C4
:1002200001F002BA4170705F6D61696E5F74617355
:100230006B000000390200084FF47A7403A000F04C
:100240001FFF204601F0D8F9F8E700004170705F09
:100250006D61696E5F7461736B0D0A00FEE7704734
:1002600072B6FEE72DE9F84FDFF8B8910024A9F146
:10027000040B23460F2709F1040AABF1040EC9E071
:100280000125A5402A40AA427DD1674ED1F804C07D
:10029000ACEB0608B44532D014DCBCF1030F3AD005
:1002A00009DCBCF1000F2AD0BCF1010F1CD0BCF15D
:1002B000020F31D11DE0BCF1110F17D0BCF1120FAC
:1002C0002AD119E0B8F5881F19D006DCB8F5803FAF
:1002D00015D0B8F5801F1FD111E0B8F5001F0ED062
:1002E000B8F5041F18D10AE0CB6815E0CB681B1DD8
:1002F00012E0CB6808330FE0CB680C330CE08B685E
:100300002BB1012B4FF0080303D0456104E0042317
:1003100002E0056100E00023FF2A01D8064601E063
:1003200000F104064FEA840501D9A5F12005D6F8AD
:10033000008007FA05FC28EA0C0803FA05F548EAEC
:100340000508C6F800804D68ED0062D5374DAE69EE
:1003500046F00106AE61AD6924F0030605F0010523
:100360000095334D06EB050CDCF80850A607360F58
:1003700007FA06F825EA0805DFF8B880404503D1FA
:100380004FF0000817E044E0DFF8AC80404502D1B0
:100390004FF001080FE0DFF8A480404502D14FF094
:1003A000020808E0DFF89880404502D14FF00308CA
:1003B00001E04FF0040808FA06F848EA0508CCF80E
:1003C00008804D68D9F80060ED024D4601D516430E
:1003D00000E096432E604D68DAF80060AD025546A5
:1003E00001D5164300E096432E604D68DBF80060AF
:1003F000AD035D4601D5164300E096432E604D687F
:10040000DEF80060ED03754601D5164300E0964323
:100410002E60641C0D682A46E5407FF431AFBDE8CC
:10042000F88F000008040140000011100010024085
:100430000000014000080140000C01400010014094
:10044000001401400148806870470000000000204F
:1004500070B5040025D094F83D00002520B984F83B
:100460003C50204600F0B8F8242084F83D00206875
:10047000016821F0010101602068016841F4004138
:1004800001602068016821F40041016000F0F4F986
:100490004D4A6168914201D84C4900E04C4988427C
:1004A00001D2012070BD4B492368B0FBF1F15E68B9
:1004B00026F03F060E435E606368934206D94FF410
:1004C000967359434FF47A73B1FBF3F12368491CD7
:1004D0001E6A26F03F06314319626168914210D8C6
:1004E0004900401EB0FBF1F2521CC2F30B02042A79
:1004F00001D2042022E0B0FBF1F0401CC0F30B005D
:100500001CE0A268F2B301EBC10303EB0116431E2A
:10051000B3FBF6F35B1C43F480431B0549D092B355
:1005200001EBC10202EB0111401EB0FBF1F0401CD7
:10053000C0F30B0040F4804040F400402168CA69D9
:100540004CF6FF739A431043C861D4E90710014386
:100550002068026822F0C00211430160D4E903015F
:1005600001432068826848F2FF339A431143816057
:10057000D4E9050108432168CA6822F0FF0210434C
:10058000C86001E00EE016E02068016841F001015A
:1005900001602564202084F83D00256384F83E50E6
:1005A000002070BD01EB4106431EB3FBF6F35B1C5C
:1005B000B3E70120C2E701EB4101401EB0FBF1F0BF
:1005C000401CC0F30B00B7E7A086010080841E002A
:1005D00000093D0040420F0010B586B00021009197
:1005E0000191029103910068104988421BD1104C7F
:1005F000A06940F00800A061A069694600F0080009
:1006000004904FF44060009012200190032003906A
:100610000848FFF727FEE06940F48000E061E069E8
:1006200000F48000049006B010BD000000580040A7
:1006300000100240000C0140024881680278114419
:100640008160704700000020074810B5016841F044
:1006500010010160032000F067F80F2000F006F899
:1006600000F024F8002010BD0020024070B50D4DB0
:1006700004464FF47A712878B1FBF0F00A49096812
:10068000B1FBF0F000F0CEFA48B9102C07D20022EE
:100690002146501E00F028F800206C6070BD01203B
:1006A00070BD0000000000200C0000200C4808B5C0
:1006B000816941F001018161816901F001010091CD
:1006C000C16941F08051C161C06900F08050009063
:1006D0000448416821F0E06141F00071416008BDCB
:1006E0000010024000000140F0B40E4B1B680C46A5
:1006F000C3F30223C3F10705042D00D90425191DF6
:10070000072901D2002300E0DB1E012606FA05F1CD
:10071000491E214099409E40761E16403143F0BC50
:1007200000F0B6BC0CED00E0064900F007020868D6
:100730004FF6FF03184040EA0220034A10430860C6
:10074000704700000CED00E00000FA052DE9F047CD
:100750000F46050061D0434E306800F00700B842F4
:1007600009D2306820F0070038433060306800F06C
:100770000700B84251D128683B4C810712D5400789
:1007800003D5606840F4E06060602878000703D516
:10079000606840F4605060606068A96820F0F00014
:1007A000084360602878C00728D06868012810D006
:1007B0002168022810D0890700292EDA616821F00B
:1007C000030101436160FFF73DFE804641F2883935
:1007D0000DE021688903EFE78901EDE7FFF732FEBD
:1007E000A0EB0801494502D90320BDE8F087606805
:1007F000696800F00C00B0EB810FEFD1306800F0B9
:100800000700B8420BD9306820F007003843306049
:10081000306800F00700B84201D00120E5E72878F1
:10082000400705D56068E96820F4E060084360602F
:100830002878000706D56068296920F4605040EAEE
:10084000C100606000F038F86168084AC1F3031124
:10085000515CC8400649086006480068FFF706FF7B
:100860000020C2E70020024000100240EE190008FC
:100870000C00002004000020044805490068496875
:10088000044AC1F30221515CC84070470C000020AB
:1008900000100240FE190008044805490068496834
:1008A000044AC1F3C221515CC84070470C000020CB
:1008B00000100240FE1900080E4A51680E4801F06F
:1008C0000C03042B11D0082B0FD10C48C1F3834328
:1008D000C903C05C0AD55168084AC1F34041921E61
:1008E000515C054A5043B0FBF1F07047044948435E
:1008F000704700000010024000127A00DE19000864
:1009000000093D002DE9F84F040070D02078C04D5B
:10091000C00749D06868C0F38100012807D0686823
:10092000C0F38100022809D16868C00306D5286891
:10093000800339D560680028E7D035E06068B0F5FD
:10094000803F0BD010B1B0F5A02F11D0286820F453
:1009500080302860286820F4802002E0286840F475
:1009600080302860606890B1FFF76CFD06460AE0B1
:10097000286840F480202860F0E700BFFFF762FDA0
:10098000801B642873D828688003F7D50CE0FFF734
:1009900059FD064605E000BFFFF754FD801B6428A3
:1009A000F0D828688003F7D420789A4E80074FF05B
:1009B00001094FF0000839D5686810F00C0F07D016
:1009C0006868C0F38100022809D16868C00306D4B2
:1009D0002868800714D52069012808D110E0206913
:1009E000B0B1C6F80090FFF72DFD074605E00AE11B
:1009F000FFF728FDC01B0228C4D828688007F7D558
:100A00002868616920F0F80040EAC10028600DE024
:100A1000C6F80080FFF716FD074604E0FFF712FD59
:100A2000C01B022823D828688007F7D42078000745
:100A30002CD57948A169D9B1C0F80090FFF702FD23
:100A4000074604E0FFF7FEFCC01B02280FD8686AC7
:100A50008007F7D571484FF4FA510068B0FBF1F008
:100A6000009000BF0098411E0091FAD20EE080E095
:100A7000C0F80080FFF7E6FC074604E0FFF7E2FC61
:100A8000C01B022875D8686A8007F7D42078400711
:100A900060D5E8690027C00008D4E86940F08050BC
:100AA000E861E869012700F0805000905C48016827
:100AB000C90513D40168834641F480710160FFF7D2
:100AC000C1FC824606E000BFFFF7BCFCA0EB0A00B9
:100AD00064284ED8DBF80000C005F5D5E068012891
:100AE0000AD008B1052813D0286A20F00100286236
:100AF000286A20F0040002E0286A40F00100286221
:100B0000E06841F2883B98B1FFF79CFC82460BE01D
:100B1000286A40F004002862EEE700BFFFF792FC6D
:100B2000A0EB0A0159455AD8286A8007F6D50CE08F
:100B3000FFF788FC824605E0FFF784FCA0EB0A0182
:100B400059454CD8286A8007F6D41FB1E86920F0CF
:100B50008050E861E06988B36968C1F381010229C6
:100B600044D00228C6F8608004D0FFF76BFC04462E
:100B700038E034E0FFF766FC074604E0FFF762FC6C
:100B8000C01B02282BD828688001F7D4206AB0F552
:100B9000803F05D16868A16820F400300843686090
:100BA000D4E908010843696821F4741108436860B6
:100BB000C6F86090FFF746FC044606E025E000BF5B
:100BC000FFF740FC001B022809D828688001F7D5F0
:100BD0001BE000BFFFF736FC001B022802D90320F0
:100BE000BDE8F88F28688001F4D40EE00128F7D022
:100BF0006868226A00F48031914204D1616A00F48D
:100C00007010884201D00120EAE70020E8E70000E8
:100C10000010024000004242800442420C000020CA
:100C20000070004010B5401EB0F1807F01D301205C
:100C300010BD4FF0E02460610F21601700F028FA2A
:100C40000020A06107202061002010BD70B50400C5
:100C500004D094F84100002510B106E0012070BDD9
:100C600084F84050204600F023F8242084F8410006
:100C70002068C16821F40051C160204600F06AF983
:100C80002068016921F4904101612068416921F0E7
:100C90002A0141612068C16841F40051C160656466
:100CA000202084F8410084F842006563002070BD74
:100CB00030B585B000240094019402940394006838
:100CC0001449884224D11448816941F480418161EA
:100CD000816901F480410491816941F004018161DD
:100CE00080690E4D00F0040004904FF400700090F5
:100CF000022001900320039069462846FFF7B2FACC
:100D00002815CDE90004694628460294FFF7AAFA9F
:100D100005B030BD0038014000100240000801401D
:100D20002DE9F843044690F84100984616460D46D2
:100D3000202802D00220BDE8F88385B17EB10020D2
:100D40006064212084F84100FFF77CFBA684814683
:100D5000E684A0682027B0F5805F02D003E0012080
:100D6000E9E7206910B12E4600250EE000260CE0D0
:100D70008021204600F04AF9A8B9C6B116F8010B47
:100D800021684860E08C401EE084E08C4B464FF0C8
:100D90000002CDF800800028EAD14FF04001204643
:100DA00000F034F940B184F841700320C3E735F80E
:100DB000020BC0F30800E3E784F841700020BAE7B3
:100DC000FEE70000114808B5816941F0100181611A
:100DD000816901F010010091816941F02001816178
:100DE000816901F020010091816941F00801816170
:100DF000816901F008010091816941F0040181617C
:100E0000806900F00400009008BD0000001002405E
:100E10000D4810B50B4901600C49416000214FF4A9
:100E200080428160C0E9031241618161C161016258
:100E3000FFF70EFB002803D0BDE81040FFF710BA03
:100E400010BD00000058004074000020A086010082
:100E50000C4810B50A4901604FF4E13141600021AE
:100E600081600C22C160C0E904128161C161FFF799
:100E7000EDFE002803D0BDE81040FFF7F1B910BD2A
:100E800000380140C8000020FEE7FEE710B5FFF77C
:100E9000D3FB00F077FC012803D0BDE8104000F040
:100EA0002DBC10BD30B58FB028216846FFF78DF9F5
:100EB00014210AA8FFF789F901210804CDE90010DF
:100EC0000024029402250491CDE907504FF4E0106C
:100ED00009906846FFF716FD08B172B6FEE70F20CD
:100EE000CDE90A054FF48060CDE90C4002210AA843
:100EF0000E94FFF72BFC002801D072B6FEE70FB06E
:100F000030BD704701680C3151E8002F22F4907217
:100F100041E80023002BF5D10168143151E8002F7E
:100F200022F0010241E80023002BF5D1016B0129D9
:100F300009D101680C3151E8002F22F0100241E87C
:100F40000023002BF5D1202180F8421000210163FD
:100F50007047000070B5044600680169E26821F43A
:100F60004051114301612169A06808436169084348
:100F70002168CA6841F20C639A430243CA60206840
:100F80004169A26921F44071114341611E49206801
:100F9000884202D1FFF780FC01E0FFF76DFC00EB17
:100FA000C00101EB0012606864218000B2FBF0F325
:100FB000B3FBF1F36FF018067343B2FBF0F5B2FB2D
:100FC000F0F605EB8305322303EB0515B5FBF1F5D0
:100FD000B6FBF1F605F0F00505EB0615B2FBF0F6F1
:100FE000B2FBF0F0B0FBF1F06FF01802504306EBEB
:100FF000800003EB0010B0FBF1F0216800F00F005F
:101000002844886070BD0000003801402DE9F84395
:10101000984617460D460446089E24E0701C22D0D0
:10102000FFF710FAA0EB0800B0421AD8CEB1206842
:10103000C168490717D5802D15D0402D13D0016800
:10104000C94309070FD40168002540680090204675
:10105000FFF758FF0820606484F840500120BDE885
:10106000F8830320FBE72068006835EA000004D01D
:101070000020B842D2D00020F1E70120F9E7FEE7D6
:10108000014A024900F023B8F11000087000002066
:101090000907090E002804DB00F1E02080F80014A5
:1010A000704700F00F0000F1E02080F8141D704739
:1010B00002E008C8121F08C1002AFAD17047704721
:1010C000002001E001C1121F002AFBD170472DE969
:1010D000F04116460F460446002503E03946B04766
:1010E000641C6D1C20780028F8D12846BDE8F081EA
:1010F00013B54FF6FF73012269460248FFF710FE51
:1011000000981CBDC8000020FFF79EFAFFF7CAFE3A
:10111000FFF758FEFFF79CFEFFF77AFEFFF772F825
:10112000FEE700002DE9F0411E4C0F460546E6683B
:101130002068001D00F0E0F938B9206890F82C1004
:1011400001208840216981432161681C15D1A7B124
:10115000154922684868906023688268DA602268CE
:101160008368121D5A602268121D826020684161E6
:101170000868401C0860BDE8F08120683544B5422D
:101180004560216805D2E06BBDE8F041091D00F023
:10119000D4B9A06B091D00F0D0F9A06A8542EAD24B
:1011A000A562E8E714000020C40100202DE9F04109
:1011B000054600F0DBF9364CA068401CA0602068B2
:1011C000344F10B1606940B32DE02560A06801285C
:1011D00029D1002606EB860007EB800000F09FF97E
:1011E000761C052EF6D32B48643000F098F9294878
:1011F000783000F094F927488C3000F090F92548B9
:10120000A03000F08CF92348B43000F088F9214870
:101210006430A0631430E06305E02068E96AC06AC6
:10122000884200D82560606A0121401C6062E86A3B
:10123000226981401143216100EB800007EB8000AF
:101240004068A8608168E9608268291D51608160FA
:10125000E86A00EB800007EB8001696157F8201015
:10126000491C47F8201000F08FF9606900280CD065
:101270002068E96AC06A884207D207494FF0805067
:101280000860BFF34F8FBFF36F8FBDE8F0810000A0
:10129000140000201001002004ED00E010B5044609
:1012A000006B00F07BF92046BDE8104000F076B9F5
:1012B0000E484FF48841420706D0C01D0B4920F06C
:1012C0000700411AC1F58841094A00230144C2E9D7
:1012D00000030839143A21F0070111604B600B60DC
:1012E0000B1AC0E90013936053607047D8010020C7
:1012F00068000020144E154CA6F1A0074FF080584E
:10130000DFF84C9012E000BF00F030F9F068C568DB
:10131000281D00F0F1F8A068401EA0606068401E23
:10132000606000F031F92846FFF7B8FF60680028D8
:10133000EAD138680128F9D9C9F80080BFF34F8F86
:10134000BFF36F8FF2E70000B0010020140000200F
:1013500004ED00E02DE9F0479946DDE90964804697
:101360006FF00303206B03EB8202089D104420F012
:10137000070761B1002023180A5C83F834200A5C57
:1013800012B1401C1028F6D3002084F84300052D2C
:1013900000D30425201DE56200F0CCF804F118000C
:1013A00000F0C8F82461C5F105006462A0614A46F6
:1013B0004146384600F08EF82060002E00D03460A0
:1013C000BDE8F08730B5114900E011460A68824255
:1013D000FBD34B685C18844203D1406818444860D2
:1013E000084643681C18944209D1084C143C2468F0
:1013F000A24209D052681A4442600A681268026028
:10140000814200D0086030BD0460F9E76800002028
:101410000548816B096821B1816BC96809688162DF
:1014200070474FF0FF31FAE714000020BF2080F32F
:101430001188BFF34F8FBFF36F8FFEE770B504467F
:10144000002600F019F9224D286808B9FFF730FF8F
:10145000CCB304F00700C0F11000C1438C4232D875
:10146000211800292FDD686881422CD818481430D3
:101470000246146801E02046144662688A4202D29D
:101480002268002AF7D12A6894421CD00668226894
:10149000026060680836421A102A04D96018426057
:1014A0006160FFF78FFF61686868401A6860AA682A
:1014B000904200D2A86041F00040606000202060AF
:1014C000E868401CE86000F0FDF9304670BD00009F
:1014D0005400002010B5031F4FF080741C601B1FC8
:1014E00021F001011960191F024B0B6014394038BB
:1014F0000A6010BD2D140008D0E9013201699A601C
:10150000D0E901235A604A68824201D182684A6068
:10151000002202610868401E08600868704700F1F8
:1015200008014FF0FF32C0E90112C16001610021E2
:101530000160704700210161704730B50B685A1C8B
:1015400002D000F1080202E0026904E02246546879
:1015500025689D42FAD953684B6099608A60516052
:1015600008610168491C016030BD0000BF2080F3A4
:101570001188BFF34F8FBFF36F8F02480168491C7A
:10158000016070471000002003490868401E086091
:1015900001D180F3118870471000002070B5002839
:1015A0001BD0A0F108046068002816DA2168002921
:1015B00013D120F00040606000F05EF8074D6068D5
:1015C0006968084468602046FFF7FCFE2869401CF3
:1015D0002861BDE8704000F075B970BD540000206E
:1015E0004FF0E02000210161816102494161072142
:1015F000016170473F19010010B5020009D000F0E9
:101600003BF800211046FFF78DFD00F05BF9002844
:1016100007D104494FF080500860BFF34F8FBFF3EC
:101620006F8F10BD04ED00E07CB50F480025CDE9BB
:1016300000502B4680220DA10E4800F075F80A4C90
:101640002C3C01280ED1BF2080F31188BFF34F8FAF
:10165000BFF36F8F4FF0FF30A06201206061E56043
:1016600000F034F8206B7CBD4000002049444C451C
:1016700000000000F51200080248416B491C41635C
:1016800070470000140000200E48416B11B1012189
:10169000C16170470021C16101690B4AB1FA81F152
:1016A000C1F11F0101EB810102EB810101F108038E
:1016B0004A6852684A609A4201D152684A60D168C9
:1016C000016070471400002010010020094810B587
:1016D000016841F47F010160016841F07F410160D0
:1016E000FFF77EFF044900200860FEF71BFD002085
:1016F00010BD000020ED00E01000002010B5BF205C
:1017000080F31188BFF34F8FBFF36F8F00F048F85D
:1017100018B104494FF080500860002080F3118810
:1017200010BD000004ED00E02DE9FF5F8346DDE918
:101730000E87994616468A469000FFF77FFE050001
:101740001DD04C20FFF77AFE040015D04C21FEF787
:101750003CFD25630021CDE90241CDE900874B46E0
:10176000324651465846FFF7F5FD2046FFF71EFD6D
:10177000012004B0BDE8F09F2846FFF70FFF4FF0AF
:10178000FF30F6E70548416919B1406B18B10020F8
:1017900070470120704702207047000014000020AD
:1017A0002DE9F041454C0026606B28B1A069401C32
:1017B000A0613046BDE8F081E5686D1CE56008D1A8
:1017C000A06BE16BA163E063206A401C2062FFF71D
:1017D0001FFEA16A3A488D420FD34FF0000EA16B55
:1017E000096839B1A16BC968C9684A68954212D2C3
:1017F000A26202E04FF0FF31A1622168C96A01EBE9
:10180000810150F82100012800D90126E069002853
:10181000CFD00126CDE7D1E902724B69BA60D1E998
:1018200002277A605F680A1D974201D1CF685F6026
:10183000C1F814E01F687F1E1F60D1F828C0BCF1FA
:10184000000F15D0D1E907379F60D1E907377B60DA
:10185000DCF8047001F118039F4202D10B6ACCF846
:101860000430C1F828E0DCF800305B1ECCF8003012
:10187000CB6A0127D4F810C09F4047EA0C072761C4
:1018800003EB830300EB83035B688B609F68CF608F
:101890009F687A609A60CA6A02EB820200EB820358
:1018A0004B6150F822305B1C40F82230C96A226834
:1018B000D26A914293D9012691E7000014000020DA
:1018C000100100202DE9F04100242746FFF74EFECD
:1018D0003F4D686B401E6863686B002872D1A86832
:1018E0003C4B00264FF00108F0BB6BE0D868C468A1
:1018F000D4E90721A06A9160D4E9071251604268D7
:1019000004F118018A4201D1216A4160A66201688E
:10191000491E0160D4E9022160699160D4E9021294
:1019200051604268211D8A4201D1E26842606661CD
:101930000268521E0260E26AD5F810C008FA02F08E
:1019400040EA0C00286102EB8200224A8C3A02EB4A
:1019500080004068A060D0F808C0C4F80CC0D0F87F
:1019600008C0CCF8041000E012E08160E06A00EBEF
:10197000800002EB8001616152F82010491C42F89E
:101980002010E06A2968C96A884201D3C5F81C8022
:1019900018680028AAD10CB1FFF73AFDAC693CB138
:1019A000FFF7FEFE08B1C5F81C80641EF8D1AE61D9
:1019B000E86938B10849012738070860BFF34F8F3D
:1019C000BFF36F8FFFF7E0FD3846BDE8F081000000
:1019D000140000209C01002004ED00E0010202033D
:1019E0000405060708090A0B0C0D0E0F1010000065
:1019F00000000000000001020304060708090000BF
:101A00000000010203040000281A00080000002062
:101A100074000000B01000089C1A00087400002038
:101A200064490000C0100008010000001000000020
:101A30000000000000127A00AAAAAAAA0000000072
:101A40000000000000000000000000000000000096
:101A50000000000000000000000000000000000086
:101A60000000000000000000000000000400000072
:101A70000000000000000000000000000000000066
:101A80000000000000000000000000000000000056
:0C1A90000000000000000000000000004A
:04000005080000ED02
:00000001FF
